:100000000C942A000C94FD060C942A070C945707B4
:100010000C9447000C9447000C9447000C94470044
:100020000C9447000C9447000C9447000C94470034
:100030000C9447000C9447000C9447000C94470024
:100040000C9481090C9447000C9447000C944700D1
:100050000C94470011241FBECFE5D8E0DEBFCDBF12
:1000600011E0A0E6B0E0E6ECF4E202C005900D92EB
:10007000A63DB107D9F711E0A6EDB1E001C01D9290
:10008000A63FB107E1F70E94CD110C9461120C94C8
:100090000000A0E0B0E0EFE4F0E00C942A12DC01F4
:1000A0002B01FA019C91923008F439C1EB0188814F
:1000B000823008F433C1943069F4843009F02FC1E0
:1000C00011969C9111978981981709F428C1A0E68F
:1000D000B0E025C1843009F421C18230A9F4923006
:1000E00009F01DC19A01AD0188E0EA010990AE0155
:1000F000E90109929E018150C1F7E20189811196BF
:100100009C918923818308C1923009F407C112961A
:100110002D903C901397EB018A819B811496AD90B2
:10012000BD90CD90DC901797EC80FD800E811F81F3
:100130009101281B390BB90137FF04C066277727C7
:10014000621B730B603271050CF061C0121613064E
:100150006CF537014801062E04C096948794779475
:1001600067940A94D2F721E030E040E050E004C008
:10017000220F331F441F551F6A95D2F7215030407C
:10018000404050402E213F2140235123211531056D
:100190004105510521F021E030E040E050E07901D7
:1001A0008A01E628F728082919293CC0232BD1F118
:1001B000260E371E35014601062E04C096948794FC
:1001C000779467940A94D2F721E030E040E050E061
:1001D00004C0220F331F441F551F6A95D2F72150C8
:1001E0003040404050402A213B214C215D212115C7
:1001F00031054105510521F021E030E040E050E0BB
:1002000059016A01A628B728C828D9280BC0821529
:1002100093052CF01C01AA24BB24650103C0EE2425
:10022000FF24870111969C91D20111968C91981709
:1002300009F445C0992339F0A80197012A193B090F
:100240004C095D0906C0A60195012E193F09400B16
:10025000510B57FD08C011823382228224833583DB
:10026000468357831DC081E08183338222828827A1
:100270009927DC01821B930BA40BB50B8483958318
:10028000A683B7830DC0220F331F441F551F24833D
:100290003583468357838281938101979383828339
:1002A0002481358146815781DA01C9010197A1096D
:1002B000B1098F5F9F4FAF4FBF4328F30BC09183AE
:1002C00033822282EA0CFB1C0C1D1D1DE482F58288
:1002D0000683178383E0808324813581468157819B
:1002E00057FF1AC0C901AA2797FDA095BA2F8170A0
:1002F0009070A070B0705695479537952795822BD2
:10030000932BA42BB52B84839583A683B7838281FB
:100310009381019693838283DF0101C0D201CD01D5
:10032000CDB7DEB7E2E10C944612A0E2B0E0EBE913
:10033000F1E00C94361269837A838B839C832D833E
:100340003E834F835887E9E0EE2EF12CEC0EFD1E24
:10035000CE010196B7010E94F3048E010F5E1F4F7C
:10036000CE010596B8010E94F3048A8991E089279D
:100370008A8BC701B801AE01475E5F4F0E944900FA
:100380000E941E04A096E6E00C945212A0E2B0E097
:10039000ECECF1E00C94361269837A838B839C83B6
:1003A0002D833E834F835887F9E0EF2EF12CEC0E1E
:1003B000FD1ECE010196B7010E94F3048E010F5E6F
:1003C0001F4FCE010596B8010E94F304C701B80182
:1003D000AE01475E5F4F0E9449000E941E04A09636
:1003E000E6E00C945212A0E2B0E0E9EFF1E00C94E8
:1003F0002A1269837A838B839C832D833E834F8368
:100400005887CE010196BE01675F7F4F0E94F304BB
:10041000CE010596BE016F5E7F4F0E94F304998561
:10042000923088F089898230C8F0943019F4823093
:1004300051F404C0843029F4923081F480E690E0D5
:10044000C6C0923049F420E09A858A89981321E049
:100450002A87CE010996BBC0823049F420E09A85F4
:100460008A89981321E02A8BCE014196B0C02D8451
:100470003E844F8458886D887E888F88988CEE24BF
:10048000FF248701AA24BB24650140E050E060E01E
:1004900070E0E0E0F0E0C10181709070892BE9F03C
:1004A000E60CF71C081D191D9A01AB012A0D3B1D16
:1004B0004C1D5D1D80E090E0A0E0B0E0E614F70484
:1004C0000805190520F481E090E0A0E0B0E0BA0151
:1004D000A901480F591F6A1F7B1FAA0CBB1CCC1C0B
:1004E000DD1C97FE08C081E090E0A0E0B0E0A82A03
:1004F000B92ACA2ADB2A3196E032F10549F0660CA6
:10050000771C881C991C5694479437942794C3CF22
:10051000FA85EA892B893C898B859C85280F391FB0
:100520002E5F3F4F17C0CA0181709070892B61F018
:1005300016950795F794E79480E090E0A0E0B0E886
:10054000E82AF92A0A2B1B2B76956795579547952C
:100550002F5F3F4F77FDE7CF0CC0440F551F661F3D
:10056000771F17FD4160EE0CFF1C001F111F21506B
:100570003040403090E0590790E0690790E47907F7
:1005800060F32B8F3C8FDB01CA018F779070A070D6
:10059000B07080349105A105B10561F447FD0AC032
:1005A000E114F1040105110529F0405C5F4F6F4F24
:1005B0007F4F40781A8EFE1711F081E08A8F4D8FA1
:1005C0005E8F6F8F78A383E0898FCE0149960E945A
:1005D0001E04A096E2E10C944612A8E1B0E0E3EF1D
:1005E000F2E00C94361269837A838B839C832D838B
:1005F0003E834F83588789E0E82EF12CEC0EFD1ED8
:10060000CE010196B7010E94F3048E010F5E1F4FC9
:10061000CE010596B8010E94F3048985823040F02E
:100620008989823028F0C701B8010E946B0501C09A
:1006300081E06896E6E00C945212A8E0B0E0E3E2B4
:10064000F3E00C9433129B01AC0183E08983DA015F
:10065000C9018827B7FD83959927AA27BB27B82EFC
:10066000211531054105510519F482E089833AC00D
:100670008823A9F0203080E0380780E0480780E830
:10068000580729F460E070E080E09FEC30C0EE2471
:10069000FF248701E21AF30A040B150B02C079014B
:1006A0008A018EE1C82ED12CDC82CB82ED82FE82C3
:1006B0000F831887C801B7010E94CF03019718164E
:1006C000190684F4082E04C0EE0CFF1C001F111F35
:1006D0000A94D2F7ED82FE820F831887C81AD90ACE
:1006E000DC82CB82BA82CE0101960E941E0428963B
:1006F000E9E00C944F12ACE0B0E0E1E8F3E00C94D8
:100700003A1269837A838B839C83CE010196BE0162
:100710006B5F7F4F0E94F3048D81823061F18230E4
:1007200050F1843021F48E81882351F12EC02F8125
:10073000388537FD20C06E812F3131051CF06623CE
:10074000F9F023C08EE190E0821B930B29853A8556
:100750004B855C8504C056954795379527958A95B6
:10076000D2F76623B1F050954095309521953F4FD3
:100770004F4F5F4F0EC020E030E040E050E009C036
:100780002FEF3FEF4FEF5FE704C020E030E040E0A5
:1007900050E8B901CA012C96E2E00C945612EF928F
:1007A000FF920F931F937B018C0180E0E81680E09D
:1007B000F80681E0080780E0180788F48FEFE81654
:1007C000F1040105110531F028F088E090E0A0E087
:1007D000B0E017C080E090E0A0E0B0E012C080E0A0
:1007E000E81680E0F80680E0080781E0180728F0A6
:1007F00088E190E0A0E0B0E004C080E190E0A0E0FB
:10080000B0E020E230E040E050E0281B390B4A0B1A
:100810005B0B04C016950795F794E7948A95D2F779
:10082000F701E859FF4F8081281B3109410951091F
:10083000C9011F910F91FF90EF900895DF92EF9201
:10084000FF920F931F93FC01E480F58006811781CE
:10085000D1808081823048F480E090E0A0E1B0E077
:10086000E82AF92A0A2B1B2BA5C0843009F49FC063
:10087000823021F4EE24FF24870105C0E114F10445
:100880000105110519F4E0E0F0E096C06281738182
:100890009FEF623879070CF05BC022E83FEF261B20
:1008A000370B2A3131052CF020E030E040E050E0F9
:1008B0002AC0B801A701022E04C076956795579506
:1008C00047950A94D2F781E090E0A0E0B0E004C040
:1008D000880F991FAA1FBB1F2A95D2F70197A1095C
:1008E000B1098E219F21A023B1230097A105B10555
:1008F00021F081E090E0A0E0B0E09A01AB01282B6C
:10090000392B4A2B5B2BDA01C9018F779070A070CD
:10091000B07080349105A105B10539F427FF09C0F5
:10092000205C3F4F4F4F5F4F04C0215C3F4F4F4F04
:100930005F4FE0E0F0E02030A0E03A07A0E04A0797
:10094000A0E45A0710F0E1E0F0E079018A0127C045
:100950006038710564F5FB01E158FF4FD801C7010C
:100960008F779070A070B07080349105A105B105AB
:1009700039F4E7FE0DC080E490E0A0E0B0E004C0F0
:100980008FE390E0A0E0B0E0E80EF91E0A1F1B1F05
:1009900017FF05C016950795F794E794319687E001
:1009A00016950795F794E7948A95D1F705C0EE243C
:1009B000FF248701EFEFF0E06E2F679566276795BC
:1009C000902F9F77D794DD24D7948E2F8695492F2B
:1009D000462B582F5D29B701CA011F910F91FF9037
:1009E000EF90DF900895FC01DB014081518122816D
:1009F000622F6F7770E0221F2227221F9381892F99
:100A0000880F822B282F30E0991F9927991F119664
:100A10009C93119721153105A9F5411551056105E3
:100A2000710511F482E037C082E89FEF13969C9322
:100A30008E9312979A01AB0167E0220F331F441F78
:100A4000551F6A95D1F783E08C930DC0220F331F99
:100A5000441F551F12968D919C91139701971396E1
:100A60009C938E931297203080E0380780E04807EF
:100A700080E4580758F314962D933D934D935C935F
:100A8000179708952F3F310579F4411551056105F8
:100A9000710519F484E08C93089564FF03C081E02C
:100AA0008C9312C01C9210C02F57304013963C9369
:100AB0002E93129783E08C9387E0440F551F661F97
:100AC000771F8A95D1F7706414964D935D936D935B
:100AD0007C93179708951F93DC01FB019C91923042
:100AE00008F447C08081823008F443C0943051F448
:100AF00011961C91843099F58181682F70E0611BFB
:100B000071093FC0843021F0923031F48230B9F164
:100B10008181882389F12DC011961C911197823013
:100B2000F1F081811817D9F412962D913C91139709
:100B3000828193818217930794F028173907BCF0BC
:100B400014968D919D910D90BC91A02D248135819D
:100B500046815781281739074A075B0718F4112384
:100B600041F00AC082179307A407B50740F4112388
:100B700019F061E070E005C06FEF7FEF02C060E048
:100B800070E0CB011F910895DC01009711F483E020
:100B9000089580916801882309F47EC011962C91F4
:100BA0001197223008F05BC065B7E22FF0E09F019B
:100BB000220F331F41E050E0CA01022E02C0880F0D
:100BC000991F0A94E2F7982F782F7095672365BFD5
:100BD00085B72F5F3F4F02C0440F551F2A95E2F79C
:100BE000242F2095822385BF8C91813041F0813064
:100BF000B8F0823059F0833009F04EC00BC085B791
:100C0000982B95BF85B7282325BF0AC085B77823C1
:100C100075BF03C085B7982B95BF85B7482B45BFD7
:100C200012968C91882319F08130B1F50CC02BB746
:100C3000369681E090E002C0880F991FEA95E2F7AE
:100C4000282B2BBF27C02BB7369681E090E002C03F
:100C5000880F991FEA95E2F7809582231AC0223007
:100C600011F082E0089584B78F7B84BF8C9182302D
:100C700029F0833089F484B7806484BF12968C9104
:100C8000882329F0813041F48BB78F7D02C08BB768
:100C900080628BBF81E0089580E00895FC01009799
:100CA00011F483E0089521812230D0F565B730E05A
:100CB000220F331F41E050E0CA01022E02C0880F0C
:100CC000991F0A94E2F7982F782F7095672365BFD4
:100CD00085B72F5F3F4F02C0440F551F2A95E2F79B
:100CE000242F2095822385BF8081813039F0813087
:100CF00050F1823051F0833021F50BC085B7982B2D
:100D000095BF85B7282325BF1AC085B7782375BF3F
:100D100003C085B7982B95BF85B7482B45BF0FC03B
:100D2000223011F082E0089584B78F7B84BF8081E8
:100D3000823049F0833029F484B7806484BF81E035
:100D4000089580E0089581E00895FC01009711F472
:100D500083E008952181223078F44BB730E02A5F98
:100D60003F4F81E090E002C0880F991F2A95E2F77B
:100D7000482B4BBF81E00895223011F082E00895A6
:100D80008BB780628BBF81E00895FC01009711F45E
:100D900083E008952181223080F44BB730E02A5F50
:100DA0003F4F81E090E002C0880F991F2A95E2F73B
:100DB000809584238BBF81E00895223011F082E07A
:100DC00008958BB78F7D8BBF81E00895FC0100975C
:100DD00091F06115710579F0E181F0E0EE0FFF1FF0
:100DE000DF01A452BE4F6D937C93EA52FE4F5183B4
:100DF000408381E0089583E008951F920F920FB61B
:100E00000F9211242F933F934F935F936F937F9390
:100E10008F939F93AF93BF93EF93FF938091D601EE
:100E20009091D701009729F0E091DC01F091DD016C
:100E30000995FF91EF91BF91AF919F918F917F9114
:100E40006F915F914F913F912F910F900FBE0F9037
:100E50001F9018951F920F920FB60F9211242F9387
:100E60003F934F935F936F937F938F939F93AF9332
:100E7000BF93EF93FF938091D8019091D901009790
:100E800029F0E091DE01F091DF010995FF91EF91EA
:100E9000BF91AF919F918F917F916F915F914F9192
:100EA0003F912F910F900FBE0F901F9018951F929A
:100EB0000F920FB60F9211242F933F934F935F938E
:100EC0006F937F938F939F93AF93BF93EF93FF9312
:100ED0008091DA019091DB01009729F0E091E00127
:100EE000F091E1010995FF91EF91BF91AF919F9131
:100EF0008F917F916F915F914F913F912F910F90C3
:100F00000FBE0F901F901895E199FECF07B600FC19
:100F1000FDCF8EBB6DBBE29AE19A81E00895FB01A3
:100F20006115710511F483E00895E199FECF8EBB40
:100F3000E09A8DB3808381E00895843010F082E0E0
:100F40000895813049F0813028F0823039F08330C3
:100F500031F407C06ABB03C067BB01C064BB81E05A
:100F6000089561BB81E00895843008F06DC0683059
:100F700008F06AC0423008F067C08130F9F0813073
:100F800030F0823091F1833009F05CC045C02AB363
:100F900081E090E0062E02C0880F991F0A94E2F7C4
:100FA000809582238ABB2AB3842F90E002C0880FE9
:100FB000991F6A95E2F7282B2ABB44C027B381E02A
:100FC00090E0062E02C0880F991F0A94E2F78095E0
:100FD000822387BB27B3842F90E002C0880F991F1C
:100FE0006A95E2F7282B27BB2DC024B381E090E05F
:100FF000062E02C0880F991F0A94E2F7809582237B
:1010000084BB24B3842F90E002C0880F991F6A9597
:10101000E2F7282B24BB16C021B381E090E0062E16
:1010200002C0880F991F0A94E2F78095822381BB42
:1010300021B3842F90E002C0880F991F6A95E2F7D0
:10104000282B21BB81E0089582E00895843010F0C0
:1010500082E00895813049F0813028F0823039F003
:10106000833031F407C06BBB03C068BB01C065BBF4
:1010700081E0089562BB81E00895843008F06DC07E
:10108000683008F06AC0423008F067C08130F9F07B
:10109000813030F0823091F1833009F05CC045C07E
:1010A0002BB381E090E0062E02C0880F991F0A94AE
:1010B000E2F7809582238BBB2BB3842F90E002C094
:1010C000880F991F6A95E2F7282B2BBB44C028B3E1
:1010D00081E090E0062E02C0880F991F0A94E2F783
:1010E0008095822388BB28B3842F90E002C0880FAC
:1010F000991F6A95E2F7282B28BB2DC025B381E004
:1011000090E0062E02C0880F991F0A94E2F780959E
:10111000822385BB25B3842F90E002C0880F991FDE
:101120006A95E2F7282B25BB16C022B381E090E038
:10113000062E02C0880F991F0A94E2F78095822339
:1011400082BB22B3842F90E002C0880F991F6A955A
:10115000E2F7282B22BB81E0089582E00895FB018D
:101160006115710511F483E00895843010F082E078
:101170000895813049F0813028F0823039F0833091
:1011800039F408C089B303C086B301C083B3808338
:1011900081E0089580B3808381E00895FA014115CC
:1011A000510511F483E008958430E0F46830D0F400
:1011B000813049F0813028F0823039F0833081F479
:1011C00006C089B305C086B303C083B301C080B332
:1011D00090E002C0959587956A95E2F781708083CB
:1011E00081E0089582E00895843010F082E008954F
:1011F000813059F0813028F0823059F0833061F429
:101200000DC08BB380958BBB07C088B3809588BB1E
:1012100003C085B3809585BB81E0089582B3809536
:1012200082BB81E008958430C0F56830B0F581302C
:1012300091F0813028F08230C9F0833061F521C00F
:101240002BB381E090E002C0880F991F6A95E2F706
:1012500028272BBB20C028B381E090E002C0880F74
:10126000991F6A95E2F7282728BB15C025B381E0AE
:1012700090E002C0880F991F6A95E2F7282725BBE6
:101280000AC022B381E090E002C0880F991F6A95DE
:10129000E2F7282722BB81E0089582E00895379A7B
:1012A000369A80E487B986B1876086B9339A089503
:1012B000369A0895349BFECF24B135B1C901089503
:1012C000DB019093F4018093F301842F81508830E7
:1012D000B8F44093F50120E030E050E0440F551F92
:1012E0000CC0F901EE51FE4F8D919C911197820F28
:1012F000931F918380832E5F3F4F2417350789F713
:1013000008951F920F920FB60F9211242F933F93BF
:101310004F935F936F937F938F939F93AF93BF93FD
:10132000EF93FF938091F2018F5F8093F2018091A0
:101330007201843409F440C0853450F4823441F1A0
:10134000833480F5803469F0813409F064C013C0BF
:10135000863409F445C08634C8F1873409F05BC08F
:1013600049C0E091E201F091E30184B195B191832C
:10137000808381E409C0E091E401F091E50184B14A
:1013800095B19183808382E487B98093720143C0D1
:10139000E091E601F091E70184B195B191838083FA
:1013A00083E4F2CFE091E801F091E90184B195B1D5
:1013B0009183808384E4E8CFE091EA01F091EB012E
:1013C00084B195B19183808385E4DECFE091EC0117
:1013D000F091ED0184B195B19183808386E4D4CFFF
:1013E000E091EE01F091EF0184B195B1918380839A
:1013F00087E4CACFE091F001F091F10184B195B199
:101400009183808380E487B980937201E091F30136
:10141000F091F40109959091F2018091F5019817EE
:1014200041F41092F201E091F301F091F401099579
:1014300001C0369AFF91EF91BF91AF919F918F912B
:101440007F916F915F914F913F912F910F900FBEC0
:101450000F901F9018950F931F93CF93DF938C01DC
:10146000EB016115710511F483E04BC0FC01828131
:10147000813011F580816181AE010E94CE088881A2
:10148000882309F03DC080E49CE90197F1F7F80159
:1014900080816181AE010E94CE088881882339F065
:1014A0002FC0F80180816181AE010E94CE08888141
:1014B0008823B9F3188224C0882311F5F8018081AC
:1014C0006181AE010E94CE0888818823C9F080E442
:1014D0009CE90197F1F7F80180816181AE010E94DA
:1014E000CE088881882339F40BC0F801808161819E
:1014F000AE010E94CE0888818823B9F781E08883F5
:1015000080E0DF91CF911F910F910895EF92FF92AC
:101510000F931F93CF93DF93EC01009711F483E0B7
:101520001BC0FF2483E0E82E12C0FE9C8001112422
:101530000C0F1D1FF8018081618140E00E94B407FB
:10154000F8018081618142810E943D08F39480917D
:101550007301F81650F381E0DF91CF911F910F9145
:10156000FF90EF900895FC018089618940E00E941E
:101570003D0881E00895FC018089618941E00E9475
:101580003D0881E00895FC018081618140E00E9476
:101590003D0881E00895FC018081618141E00E9465
:1015A0003D0881E008951F93CF93DF93EC01162F40
:1015B000603110F082E0A8C08A89833021F0863043
:1015C00009F0A1C04EC08A816B8141E00E943D08B4
:1015D0008C816D8141E00E943D088E816F8141E0E8
:1015E0000E943D088885698541E00E943D088A8502
:1015F0006B8541E00E943D088C856D8541E00E942D
:101600003D088E856F8541E00E943D08E12FF0E0A6
:10161000EA54FE4F1081412F41708A816B810E94F4
:101620003D08412F42708C816D810E943D08412F01
:1016300044708E816F810E943D08412F48708885DB
:1016400069850E943D08412F40718A856B850E9403
:101650003D08412F40728C856D850E943D081074B5
:101660004DC08A816B8140E00E943D088C816D8174
:1016700040E00E943D088E816F8140E00E943D085D
:101680008885698540E00E943D088A856B8540E039
:101690000E943D088C856D8540E00E943D088E8546
:1016A0006F8540E00E943D08E12FF0E0EA54FE4FD4
:1016B0001081412F4E7F8A816B810E943D08412F0E
:1016C0004D7F8C816D810E943D08412F4B7F8E8123
:1016D0006F810E943D08412F477F888569850E9460
:1016E0003D08412F4F7E8A856B850E943D08412F22
:1016F0004F7D8C856D850E943D081F7B8E856F8593
:10170000412F0E943D0881E0DF91CF911F91089504
:10171000CF92DF92EF92FF920F93DF93CF9300D09F
:10172000CDB7DEB76C01062F009711F483E039C006
:101730006031B0F1FC018081618141E00E943D088F
:10174000C60143969A838983F6018389E981FA81E8
:10175000618140E00E943D08602F6F70C6010E94C9
:10176000D30A80E4E82E8CE9F82EC7010197F1F73F
:10177000F6018389E981FA81618141E00E943D0897
:10178000F6018081618140E00E943D0802950F7062
:1017900089819A81602F0E94D30AC7010197F1F7CE
:1017A00081E00F900F90CF91DF910F91FF90EF901C
:1017B000DF90CF900895EF92FF920F931F93CF93F6
:1017C000DF937C01009711F483E08DC010E003E10A
:1017D00084C0109FE0011124CE0DDF1D8881698136
:1017E00041E00E94B4078A816B8141E00E94B40706
:1017F0008C816D8141E00E94B4078E816F8141E050
:101800000E94B4078885698541E00E94B4078A85F3
:101810006B8541E00E94B4078C856D8541E00E9494
:10182000B4078E856F8541E00E94B4078889698975
:1018300041E00E94B4078881698141E00E943D082F
:101840008A89833021F0863009F046C022C08A811F
:101850006B8141E00E943D088C816D8141E00E94D6
:101860003D088E816F8141E00E943D088885698531
:1018700041E00E943D088A856B8541E00E943D0859
:101880008C856D8541E00E943D088E856F8541E025
:1018900021C08A816B8140E00E943D088C816D816E
:1018A00040E00E943D088E816F8140E00E943D082B
:1018B0008885698540E00E943D088A856B8540E007
:1018C0000E943D088C856D8540E00E943D088E8514
:1018D0006F8540E00E943D081F5F809180011817CE
:1018E00008F477CF81E0DF91CF911F910F91FF90A6
:1018F000EF900895FC018081618140E00E943D08E5
:1019000081E00895FC018081618141E00E943D08F1
:1019100081E00895FF920F931F93CF93DF93EC0123
:10192000009711F483E01AC0FF2413C00F2D10E0BC
:10193000000F111F0C0F1D1FF8018081618141E014
:101940000E94B407F8018081618140E00E943D0857
:10195000F3948091A701F81648F380E0DF91CF91CE
:101960001F910F91FF900895FC01AB016115710566
:1019700011F483E00895808161810E94CE0881E0A6
:101980000895FC01808161810E94130981E008951E
:10199000FC018081618140E00E943D0881E0089562
:1019A000FC018081618141E00E943D0881E0089551
:1019B0001F93CF93DF93EC01009711F483E013C0E2
:1019C00010E00CC0E12FF0E0EE0FFF1FEC0FFD1F49
:1019D0008081618141E00E943D081F5F8091AC01E0
:1019E000181780F381E0DF91CF911F9108951F9325
:1019F000CF93DF93EC01009711F483E013C010E064
:101A00000CC0E12FF0E0EE0FFF1FEC0FFD1F8081F7
:101A1000618140E00E943D081F5F8091AC01181772
:101A200080F381E0DF91CF911F910895FF920F9392
:101A30001F93CF93DF93EC01009711F483E01AC05A
:101A4000FF2413C00F2D10E0000F111F0C0F1D1FDE
:101A5000F8018081618141E00E94B407F801808132
:101A6000618140E00E943D08F3948091AC01F8163A
:101A700048F381E0DF91CF911F910F91FF9008957E
:101A8000FF920F931F93F82E81E063E040E00E94E5
:101A90003D084F2D441F4427441F80E067E00E940B
:101AA0003D084F2D429546954695417080E066E091
:101AB0000E943D084F2D42954695417080E065E0BB
:101AC0000E943D084F2D4295417080E064E00E94E5
:101AD0003D0881E063E041E00E943D0800E41CE92C
:101AE000C8010197F1F781E063E040E00E943D0802
:101AF000C8010197F1F74F2D4695469546954170DF
:101B000080E067E00E943D084F2D46954695417064
:101B100080E066E00E943D084F2D4695417080E0D0
:101B200065E00E943D0881E0F82280E064E04F2DEE
:101B30000E943D0881E063E041E00E943D0800E230
:101B40001EE4C8010197F1F781E063E040E00E94E4
:101B50003D08C8010197F1F781E01F910F91FF90B7
:101B600008951F93182F81E061E041E00E943D0835
:101B700081E062E040E00E943D0881E063E040E0F7
:101B80000E943D08812F0E94400D81E01F91089521
:101B90005F926F927F928F929F92AF92BF92CF92FD
:101BA000DF92EF92FF920F931F935B016C0161151F
:101BB00071058105910521F480E30E94B10D53C0A8
:101BC00097FF0BC08DE20E94B10DD094C094B094E9
:101BD000A094A11CB11CC11CD11C66247724430114
:101BE00055245394C401B3012AE030E040E050E0B2
:101BF0000E94CE117B018C01C601B5010E940F121B
:101C00003B014C016E0C7F1C801E911EC601B5016C
:101C10002AE030E040E050E00E940F12C901DA01F2
:101C20005C016D01A114B104C104D104D1F619C045
:101C3000C401B3012AE030E040E050E00E94ED1121
:101C4000862F805D0E94B10DC401B3012AE030E00F
:101C500040E050E00E94ED11C901DA013C014D0164
:101C60005A94552029F781E01F910F91FF90EF9032
:101C7000DF90CF90BF90AF909F908F907F906F90AC
:101C80005F900895AF92BF92CF92DF92EF92FF9252
:101C90000F931F935B016C0120E030E040E050E0C7
:101CA0000E94ED02882321F480E30E94B10D45C01B
:101CB000C601B5010E947B037B018C010E94C80D07
:101CC0008EE20E94B10DC801B7010E941D039B0165
:101CD000AC01C601B5010E94950120E034E244E761
:101CE00059E40E94F3010E947B03E62ED72EC82EF2
:101CF000B92E0EC06E2D7D2D8C2D9B2D2AE030E04F
:101D000040E050E00E940F12E22ED32EC42EB52EDA
:101D10006E2D7D2D8C2D9B2D2AE030E040E050E093
:101D20000E940F12611571058105910519F36E2D41
:101D30007D2D8C2D9B2D0E94C80D81E01F910F9150
:101D4000FF90EF90DF90CF90BF90AF9008951F93DA
:101D5000CF93DF93EC01009711F483E00CC010E007
:101D600003C01F5F0E94B10DFE01E10FF11D8081D4
:101D70008823B9F781E0DF91CF911F9108951F93D8
:101D8000182F81E061E040E00E943D0881E062E0C0
:101D900040E00E943D0881E063E040E00E943D0891
:101DA000812F0E94400D81E01F9108950F931F9392
:101DB000CF93DF938B016115710511F483E013C09C
:101DC000880F880F880F805C0E94BF0EC0E0D0E0B3
:101DD000F801EC0FFD1F80810E94B10D2196C830E3
:101DE000D105B1F780E0DF91CF911F910F91089558
:101DF000833080F4613170F4813019F0823051F415
:101E000003C0862F815802C0862F81540E94BF0EC6
:101E100081E0089582E00895FF920F931F93F82EBA
:101E2000062F142F81E065E00E94F80E1A3018F496
:101E300080E30E94B10D612F70E080E090E00E948D
:101E4000C80D8AE30E94B10D0A3018F480E30E94A5
:101E5000B10D602F70E080E090E00E94C80D8AE331
:101E60000E94B10D89E08F1518F080E30E94B10D3A
:101E70006F2D70E080E090E00E94C80D80EC0E9421
:101E8000BF0E81E01F910F91FF9008950F931F9354
:101E90008EE591E020E931E0F9013197F1F7019702
:101EA000D9F781E061E041E00E94B40781E062E09F
:101EB00041E00E94B40781E063E041E00E94B40782
:101EC00080E067E041E00E94B40780E066E041E026
:101ED0000E94B40780E065E041E00E94B40780E022
:101EE00064E041E00E94B40781E061E040E00E94CC
:101EF0003D0880E067E040E00E943D0880E066E049
:101F000040E00E943D0880E065E041E00E943D081D
:101F100080E064E040E00E943D0881E063E041E051
:101F20000E943D0800E21EE4C8010197F1F781E03C
:101F300063E040E00E943D08C8010197F1F788E2A4
:101F40000E94400D00EA1FE0C8010197F1F78CE004
:101F50000E94400DC8010197F1F781E00E94400DF9
:101F600080E49FE10197F1F786E00E94400D80E058
:101F70001F910F9108953F924F925F926F927F92BF
:101F80008F929F92AF92BF92CF92DF92EF92FF9289
:101F90000F931F93DF93CF93CDB7DEB7A1970FB603
:101FA000F894DEBF0FBECDBF4C01009711F483E063
:101FB00093C081E08A838B838C838D8334E03E835E
:101FC00025E02F8396E0988787E0898782E08A87DB
:101FD0008B878C878D8783E08E873F87288B998BB3
:101FE0008FEF89834424EE24FF243E010894611C72
:101FF000711CEAE0F0E0EC0FFD1FEE0DFF1D3080DC
:10200000EEE0F0E0EC0FFD1FEE0DFF1D5080832D84
:10201000652D40E00E943D0882E1C82ED12CCC0EF7
:10202000DD1ECE0CDF1C00E010E0E2E0F0E0EC0F83
:10203000FD1FE00FF11FA080E6E0F0E0EC0FFD1FB8
:10204000E00FF11FB0808A2D6B2DA3010E94CE08F6
:102050008981882321F580E49CE90197F1F78A2D95
:102060006B2DA3010E94CE088981882331F017C00F
:102070008A2D6B2DA3010E94CE0889818823C1F38C
:10208000DE015296E6ECF1E080E101900D92815084
:10209000E1F7F6018081F4018083442443940F5FCB
:1020A0001F4F84E090E0C80ED91E0430110509F0DE
:1020B000BCCF832D652D41E00E943D080894E11CB2
:1020C000F11C94E0E916F10409F093CF442019F4CF
:1020D0008FEFF401808380E0A1960FB6F894DEBF05
:1020E0000FBECDBFCF91DF911F910F91FF90EF9069
:1020F000DF90CF90BF90AF909F908F907F906F9028
:102100005F904F903F90089582E063E041E00E942D
:10211000B40782E064E041E00E94B40782E065E039
:1021200041E00E94B40782E066E041E00E94B4070B
:1021300082E063E041E00E943D0882E064E041E02B
:102140000E943D0882E065E041E00E943D0882E097
:1021500066E041E00E943D0881E064E040E00E94CA
:10216000B40781E065E040E00E94B40781E066E0EA
:1021700040E00E94B40781E067E040E00E94B407BD
:1021800081E064E041E00E943D0881E065E041E0DB
:102190000E943D0881E066E041E00E943D0881E048
:1021A00067E041E00E943D0881E00895CF93DF930E
:1021B000EC018881698141E00E943D0880E197E25D
:1021C00020E931E0F9013197F1F70197D9F78881DA
:1021D000698140E00E943D0881E0DF91CF91089540
:1021E000CF93DF93EC018881698141E00E943D0833
:1021F00088EE93E020E931E0F9013197F1F701979A
:10220000D9F78881698140E00E943D0881E0DF9133
:10221000CF910895FC018081618140E00E943D08DA
:1022200081E00895FC018081618141E00E943D08C8
:1022300081E00895CF93DF93EC018881698141E0CB
:102240000E943D0880ED97E020E931E0F9013197E7
:10225000F1F70197D9F7888169810E94130980ED10
:1022600097E020E931E0F9013197F1F70197D9F7CB
:10227000888169810E94130980ED97E020E931E0AF
:10228000F9013197F1F70197D9F7888169810E94A7
:10229000130980ED97E020E931E0F9013197F1F77A
:1022A0000197D9F7888169810E94130980ED97E031
:1022B00020E931E0F9013197F1F70197D9F78881E9
:1022C000698140E00E943D0881E0DF91CF9108954F
:1022D000CF93DF93EC018881698141E00E943D0842
:1022E00080ED97E020E931E0F9013197F1F70197AE
:1022F000D9F7888169810E94130980ED97E020E970
:1023000031E0F9013197F1F70197D9F788816981B7
:102310000E94130980ED97E020E931E0F90131973F
:10232000F1F70197D9F78881698140E00E943D0863
:1023300081E0DF91CF910895FC01808161810E944D
:10234000130981E00895FF920F931F93CF93DF93BA
:10235000EC01009711F483E01AC0FF2413C00F2D85
:1023600010E0000F111F0C0F1D1FF801808161810B
:1023700041E00E94B407F8018081618140E00E9441
:102380003D08F3948091B301F81648F381E0DF91A2
:10239000CF911F910F91FF900895FFCF629FD001C1
:1023A000739FF001829FE00DF11D649FE00DF11D10
:1023B000929FF00D839FF00D749FF00D659FF00DBF
:1023C0009927729FB00DE11DF91F639FB00DE11DAC
:1023D000F91FBD01CF0111240895A1E21A2EAA1BF5
:1023E000BB1BFD010DC0AA1FBB1FEE1FFF1FA217C5
:1023F000B307E407F50720F0A21BB30BE40BF50BC2
:10240000661F771F881F991F1A9469F7609570954A
:10241000809590959B01AC01BD01CF01089597FB7C
:10242000092E05260ED057FD04D0D7DF0AD0001C98
:1024300038F450954095309521953F4F4F4F5F4F61
:102440000895F6F790958095709561957F4F8F4F21
:102450009F4F08952F923F924F925F926F927F927B
:102460008F929F92AF92BF92CF92DF92EF92FF92A4
:102470000F931F93CF93DF93CDB7DEB7CA1BDB0B50
:102480000FB6F894DEBF0FBECDBF09942A883988F5
:1024900048885F846E847D848C849B84AA84B984FC
:1024A000C884DF80EE80FD800C811B81AA81B98108
:1024B000CE0FD11D0FB6F894DEBF0FBECDBFED011C
:0624C0000895F894FFCF1F
:1024C60000000000000000000001020203030303F5
:1024D60004040404040404040505050505050505AE
:1024E600050505050505050506060606060606068E
:1024F6000606060606060606060606060606060676
:10250600060606060606060607070707070707075D
:102516000707070707070707070707070707070745
:102526000707070707070707070707070707070735
:102536000707070707070707070707070707070725
:10254600070707070707070708080808080808080D
:1025560008080808080808080808080808080808F5
:1025660008080808080808080808080808080808E5
:1025760008080808080808080808080808080808D5
:1025860008080808080808080808080808080808C5
:1025960008080808080808080808080808080808B5
:1025A60008080808080808080808080808080808A5
:1025B6000808080808080808080808080808080895
:1025C60008080808080808080303000002010002BA
:1025D6000200400403020103030103040103050191
:1025E60002020600010002000300040005000600C6
:1025F60007010003020700010002000300040005B2
:10260600000600070100030202040203030202029D
:102616000703030103023F065B4F666D7D077F6F6D
:10262600777C395E79713738392F343536783132DF
:06263600332D43303D2B63
:00000001FF
